:1000000012C02CC02BC02AC029C028C027C026C0BF
:1000100025C024C023C022C021C020C01FC01EC0D4
:100020001DC01CC01BC011241FBECFE5D4E0DEBF25
:10003000CDBF11E0A0E6B0E0ECEBFCE002C0059023
:100040000D92A035B107D9F711E0A0E5B1E001C0EC
:100050001D92A138B107E1F728D22EC6D1CF823048
:1000600091F0833028F4882341F0813029F508C0CD
:10007000833061F0843001F50CC0869B0CC01CC03D
:10008000879B09C019C0859B06C016C0B09B03C0E2
:1000900013C0829913C088B3805888BB8FE798E358
:1000A000A1E081509040A040E1F700C0000088B37B
:1000B000805888BB81E0089580E0089580E008952D
:1000C0001F93DF93CF9300D0CDB7DEB7182F4A83AD
:1000D00069833CD410D480EA1AD484E018D4812FE8
:1000E00038D415D40ED407D480EA11D483E00FD4C9
:1000F0006981862F2ED40BD404D4FDD380EA07D493
:1001000082E005D44A81842F24D401D4FAD30F90FD
:100110000F90CF91DF911F9108951F93DF93CF939D
:1001200000D00F92CDB7DEB7182F2B8349836A8397
:10013000E2D380EAECD385E0EAD34981842F09D465
:10014000912F9295990F990F907C892BE0D3D9D359
:10015000D2D380EADCD386E0DAD36A81862FF9D362
:100160002B812295220F207E822BD1D3CAD3C3D3D9
:1001700080EACDD380E1CBD3812F86958695C7D3F6
:10018000C0D30F900F900F90CF91DF911F910895E2
:10019000CF92DF92EF92FF920F931F93DF93CF9353
:1001A00000D000D0CDB7DEB7FC018081898381818A
:1001B0008A8382818B8309D383E060E0F9D280E671
:1001C00090E0DAD283E062E0F3D289E690E0D4D224
:1001D0001C8233E0F32E8E010F5F1F4F2BE3D22ED4
:1001E00097E1E92E83E061E0E3D2C8010DD581E01B
:1001F00036DF882311F18F2D62E0DAD28CE690E0B1
:10020000BBD28F2D833011F0863019F493E0F90EB4
:1002100005C0AF2DA93011F483E0F82E8F2D62E0D8
:10022000C7D289E690E0A8D28FEF92E5A7E081508F
:100230009040A040E1F700C000008F2D63E009D599
:10024000C82ECA9482E00BDF8823C1F0CC2041F491
:100250008981873118F48F5F89832BC0198229C067
:100260008C2D8150823028F5F801EC0DF11D808134
:100270008B3310F48F5F1AC010821BC083E0EFDE57
:10028000882311F1CC2039F48981882319F0815019
:10029000898301C0E9828C2D8150823050F4F801AD
:1002A000EC0DF11D8081882319F08150808301C0FD
:1002B000D0828FEF92E5A7E081509040A040E1F717
:1002C00000C0000091E09C8380E0C9DE882309F42F
:1002D00089CFAC81A13021F489816A814B81F0DE24
:1002E0000F900F900F900F90CF91DF911F910F9172
:1002F000FF90EF90DF90CF90089567D284E060E0A8
:1003000057D28FE690E038D283E061E051D288E79F
:1003100090E032D280E0A3DE8823E1F308950F93CA
:100320001F9353D281E060E043D280E690E024D274
:1003300081E061E03DD28FE690E01ED280E060E097
:1003400037D283E890E018D210E001E082E087DE47
:10035000882321F483E083DE882369F080E0612F25
:1003600027D285E890E008D2102780E0612F20D2C4
:1003700083E890E001D28FEF92E5A7E081509040B2
:10038000A040E1F700C0000081E069DE882329F089
:10039000112319F480E791E0FBDE81E060DE882321
:1003A00019F0113009F4A9DF80E059DE882371F2D9
:1003B0000CD21F910F91089508D280E060E0F8D12F
:1003C00087E890E0D9D180E063E0F2D183E990E062
:1003D000D3D18BE063E0ECD187E990E0CDD180E030
:1003E00061E0E6D18FE7C2D18CEB90E060E032D3E0
:1003F00088E061E0DDD187E691E006D480E062E04C
:10040000D7D18EE7B3D182EC90E060E023D388E0CF
:1004100062E0CED188E791E0F7D381E020DE882347
:1004200021F11092BD001092BC001092C3001092F6
:10043000C20010926701109278011092BF001092D2
:10044000BE001092C5001092C40010926801109274
:1004500079011092C1001092C0001092C700109252
:10046000C6001092690110927A0180E0F8DD8823BD
:1004700009F4B5CFAAD10895A8D180E060E098D161
:100480008DE990E079D180E063E092D183E990E05A
:1004900073D18BE063E08CD187E990E06DD180E08F
:1004A000DEDD8823E1F391D1089580E385BB11BAA5
:1004B0008FEF82BB8EEF87BB88B3816888BB97D1F3
:1004C000BFD38FEF90E09BBD8ABD80E060E070D12C
:1004D00089EA90E051D105C08AB59BB50F969BBDC6
:1004E0008ABD84E0BCDD882351F082E0B8DD88233A
:1004F00099F705C08AB59BB50F979BBD8ABD84E06F
:10050000AEDD882321F083E0AADD882399F781E01E
:10051000A6DD811104DF83E0A2DD81114DDF82E0E1
:100520009EDD8111A9DF80E060E042D18FE71ED11E
:10053000809909C08AE691E060E01CD28AE691E0E9
:1005400060E088D203C08DEA90E016D188E060E0D8
:100550002FD18EE70BD1819909C08BE791E061E043
:1005600009D28BE791E061E075D203C08DEA90E09B
:1005700003D184E061E01CD180E791E0E8D280E71C
:1005800091E042D3809171018823E9F48091510177
:100590008B3371F588B3805888BB8FEF93EFA1E060
:1005A00081509040A040E1F700C0000088B380581F
:1005B00088BB8FEF99EFA0E081509040A040E1F719
:1005C00000C0000006C08E3199F4809151018D3138
:1005D00079F488B3805888BB8FEF93EFA1E0815006
:1005E0009040A040E1F700C0000088B3805888BB6D
:1005F000809171018093510183E791E0C5D2809190
:1006000073018823A9F490915001933089F41092DA
:100610005001809174018F5F809374016CD180EAE6
:1006200076D180E174D18091740171D16AD102C018
:100630008093500182E062E0BBD080917701D5D2F7
:100640009BD083E063E0B4D08091760188D190E0C4
:1006500061E020D185EB90E08FD0809175017FD152
:1006600090E061E017D185EB90E086D087EB90E0D9
:1006700083D08091740190E0880F991F880F991F93
:1006800020917301820F911D8A3091051CF48AEB31
:1006900090E072D08091740190E0880F991F880FCC
:1006A000991F20917301820F911D60E0F3D08AE6BB
:1006B00091E06CEB70E040E751E027E631E0F7D1E4
:1006C0008BE791E062EC70E040E751E028E731E031
:1006D000EED107CF80FF02C0AB9A01C0AB9881FF7B
:1006E00002C0AA9A01C0AA9882FF02C0A99A01C0BA
:1006F000A99883FF02C0A89A0895A898089581E058
:100700009B9B80E09A99826099998460989988600F
:1007100008951F93A398A298A198A098C49AC39AE9
:10072000EEDF182F1295107FC398C39AE8DFC398A5
:10073000812B1F910895C598ECDF08951F93182F02
:10074000A39AA29AA19AA09AC498C39A82958F70EC
:10075000C1DFC398C39A812FBDDFC398ECDF87FD4B
:10076000FDCF1F910895C598E9DF0895C59AE6DF8A
:100770000895C59ACEDF0895EF92FF92CF93DF934D
:10078000E82EE7017E01F92EE70101C0EFDF899134
:100790008823E1F7DF91CF91FF90EF900895629564
:1007A000660F660F607C680F862F8068DCDF089517
:1007B000623010F06250805F6295660F660F607C59
:1007C000680F862F8068CFDF089581E0CCDF8FE946
:1007D0009FE00197F1F700C00000089582E0C3DFB9
:1007E0008FE99FE00197F1F700C0000008951F9383
:1007F000A39AA29AA19AA09ABB9ABD9ABC9A8FE298
:1008000095E70197F1F700C00000C598C398C49818
:1008100013E0C39A83E05EDFC3988FE097E201970D
:10082000F1F700C000001150A1F7C39A82E052DF37
:10083000C3988FEC97E00197F1F700C0000088E2C1
:1008400092DF88E090DF81E08EDF86E08CDF8CE055
:100850008ADF1F91089597FD0CC0E6E6F1E02AE0DB
:1008600030E0B90102D2805D8293CB010097C9F7D5
:100870000FC0E6E6F1E02AE030E040E3B901F5D14F
:10088000942F981B9293CB010097C1F78DE282932E
:10089000CF010895CF93DF93EC01613031F48A30BA
:1008A00091051CF488EC90E067DFCE01D4DF64DFB3
:1008B000DF91CF9108950F931F93CF93DF938C0116
:1008C000C7E0D0E0C8010C2E02C0959587950A9428
:1008D000E2F780FF03C08AEC90E002C088EC90E071
:1008E0004BDF21973FEFCF3FD30761F7DF91CF91E8
:1008F0001F910F91089584EA86BF06B607FEFDCFCB
:10090000089584E986BF06B604FCFDCF089583B937
:1009100084E886BF06B607FEFDCF21B181B191E024
:100920008C3109F090E081E0223109F080E0892BE0
:1009300021E082270895882311F084EC01C084E827
:1009400086BF06B607FEFDCF83B1089580E280B969
:1009500008956AE07ED18295807F892B0895982F33
:1009600092959F70990F292F220F220F290F8F70B8
:10097000820F0895AF92BF92CF92DF92EF92FF92D3
:100980000F931F93CF93DF93EC01A62EDFDFAA0C0A
:1009900030E9B32EBA2881E9A82A22E0E22EF12C10
:1009A000EC0EFD1E8E010C5F1F4FA5DF8B2DAFDF00
:1009B00081E5ADDFA6DF9FDF8B2DA9DF8AEAA7DF08
:1009C0009ADF8A2DA4DF81E0B6DFD82ECC248D2DCE
:1009D000992787FD9A95F7019183808380E0ABDFAB
:1009E000FAE08F9F90011124232F330F330BF8016E
:1009F0003183208386DFF70120813181FFEF243CA2
:100A00003F0799F237FF19C081E090E0998388830E
:100A1000F80180819181009791F0F70180819181A7
:100A20000196918380838AE090E0F80120813181F2
:100A3000821B930B9183808302C019821882DF91FD
:100A4000CF911F910F91FF90EF90DF90CF90BF90CB
:100A5000AF9008951F93CF93DF93EC01162F8A81F7
:100A60009B8197FD0BC0888199818130910519F494
:100A70008CEC90E002C08EEC90E07EDE8A819B815F
:100A800060E008DF80ED90E077DE8C819D8160E0A2
:100A900001DF113029F48FED69DE82ED90E002C0B4
:100AA00084ED90E069DEDF91CF911F910895EF9280
:100AB000FF921F93CF93DF93FC01DB01628173816F
:100AC00012968D919C91139768177907ECF068172F
:100AD0007907B9F5808191818130910551F4648164
:100AE000758114968D919C9115978617970764F0E0
:100AF00028C0009731F56481758114968D919C9181
:100B0000159768177907ECF410E0812F90E0BC018D
:100B1000660F771F7D01E60EF71E6E0F7F1FEB013C
:100B200068817981E70179836883B901680F791F4A
:100B3000840F951FEC018881EB0188831F5F1330C0
:100B400021F7DF91CF911F91FF90EF900895CF9300
:100B5000DF93EC01FBDECFDE80EAD9DE82E0D7DE78
:100B6000D0DEC9DE81EAD3DE81E0E5DEF8DE8A830D
:100B700081E0E1DEF4DE898380E0DDDEF0DE888383
:100B8000C0DEDF91CF910895CF93DF93EC01DEDEDD
:100B9000B2DE80EABCDE85E0BADEB3DEACDE81EA3E
:100BA000B6DE81E0C8DE982F929596959695937063
:100BB00098838F738B8380E0BEDE982F9F719A831A
:100BC0008295869587708C839CDE95DE80EA9FDE19
:100BD00080E19DDE96DE8FDE81EA99DE80E0ABDE8D
:100BE00089838FDEDF91CF910895873048F4E82F15
:100BF000F0E0EE0FFF1FEF5BFE4F2081318102C05E
:100C000027ED30E0C90108950F931F93CF93DF9331
:100C1000EC01888190E061E03DDE04EE10E0C80167
:100C2000ABDD898190E061E035DEC801A5DD8A8118
:100C300090E061E02FDEDF91CF911F910F91089539
:100C400081EA8FBD8CE08EBD1BBC1ABC19BC18BCE0
:100C50000895991B79E004C0991F961708F0961B18
:100C6000881F7A95C9F78095089597FB092E072666
:100C70000AD077FD04D00CD006D000201AF470956D
:100C800061957F4F0895F6F7909581959F4F089550
:100C9000AA1BBB1B51E107C0AA1FBB1FA617B707A2
:100CA00010F0A61BB70B881F991F5A95A9F78095BE
:0C0CB0009095BC01CD010895F894FFCF91
:100CBC005365742054696D65005E5E0020200053FE
:100CCC00657420446174650030332F31322F32301B
:100CDC003134003E00200054656D702E206D696E1D
:100CEC002E3A0045736300436C6561720054656D68
:100CFC00702E206D61782E3A002E2E2E00204F463D
:100D0C0046202020002F003230003000000063000D
:100D1C006300000063006300300031002D002000F0
:100D2C002C004300202000202020202020202020E8
:100D3C00202020003A00206E6965647A69656C6138
:100D4C00202000706F6E6965647A69616C656B0058
:100D5C0020202077746F72656B20202000202020CB
:100D6C0073726F646120202020002020637A7761E9
:100D7C007274656B20200020202070696174656B93
:100D8C0020202000202020736F626F7461202020AF
:100D9C0000E600F30000010D011A012701340100E7
:00000001FF
