:1000000012C02CC02BC02AC029C028C027C026C0BF
:1000100025C024C023C022C021C020C01FC01EC0D4
:100020001DC01CC01BC011241FBECFE5D4E0DEBF25
:10003000CDBF11E0A0E6B0E0E2E1FDE002C0059036
:100040000D92A234B107D9F711E0A2E4B1E001C0EA
:100050001D92A337B107E1F728D259C6D1CF82301C
:1000600091F0833028F4882341F0813029F508C0CD
:10007000833061F0843001F50CC0869B0CC01CC03D
:10008000879B09C019C0859B06C016C0B09B03C0E2
:1000900013C0829913C088B3805888BB8FE798E358
:1000A000A1E081509040A040E1F700C0000088B37B
:1000B000805888BB81E0089580E0089580E008952D
:1000C0001F93DF93CF9300D0CDB7DEB7182F4A83AD
:1000D000698341D415D480EA1FD484E01DD4812FD4
:1000E0003DD41AD413D40CD480EA16D483E014D4AB
:1000F0006981862F33D410D409D402D480EA0CD479
:1001000082E00AD44A81842F29D406D4FFD30F90E9
:100110000F90CF91DF911F9108951F93DF93CF939D
:1001200000D00F92CDB7DEB7182F2B8349836A8397
:10013000E7D380EAF1D385E0EFD34981842F0ED451
:10014000912F9295990F990F907C892BE5D3DED34F
:10015000D7D380EAE1D386E0DFD36A81862FFED34E
:100160002B812295220F207E822BD6D3CFD3C8D3CA
:1001700080EAD2D380E1D0D3812F86958695CCD3E7
:10018000C5D30F900F900F90CF91DF911F910895DD
:10019000CF92DF92EF92FF920F931F93DF93CF9353
:1001A00000D000D0CDB7DEB7FC018081898381818A
:1001B0008A8382818B8307D383E060E0F7D280E675
:1001C00090E0DFD283E062E0F1D289E690E0D9D21C
:1001D0001C8233E0F32E8E010F5F1F4F2BE3D22ED4
:1001E00097E1E92E83E061E0E1D2C801DFD481E04C
:1001F00036DF882311F18F2D62E0D8D28CE690E0B3
:10020000C0D28F2D833011F0863019F493E0F90EAF
:1002100005C0AF2DA93011F483E0F82E8F2D62E0D8
:10022000C5D289E690E0ADD28FEF92E5A7E081508C
:100230009040A040E1F700C000008F2D63E034D56E
:10024000C82ECA9482E00BDF8823C1F0CC2041F491
:100250008981873118F48F5F89832BC0198229C067
:100260008C2D8150823028F5F801EC0DF11D808134
:100270008B3310F48F5F1AC010821BC083E0EFDE57
:10028000882311F1CC2039F48981882319F0815019
:10029000898301C0E9828C2D8150823050F4F801AD
:1002A000EC0DF11D8081882319F08150808301C0FD
:1002B000D0828FEF92E5A7E081509040A040E1F717
:1002C00000C0000091E09C8380E0C9DE882309F42F
:1002D00089CFAC81A13021F489816A814B81F0DE24
:1002E0000F900F900F900F90CF91DF911F910F9172
:1002F000FF90EF90DF90CF90089565D284E060E0AA
:1003000055D28FE690E03DD283E061E04FD288E79E
:1003100090E037D280E0A3DE8823E1F308950F93C5
:100320001F9351D281E060E041D280E690E029D273
:1003300081E061E03BD28FE690E023D280E060E094
:1003400035D283E890E01DD210E001E082E087DE44
:10035000882321F483E083DE882369F080E0612F25
:1003600025D285E890E00DD2102780E0612F1ED2C3
:1003700083E890E006D28FEF92E5A7E081509040AD
:10038000A040E1F700C0000081E069DE882329F089
:10039000112319F482E691E0FBDE81E060DE882320
:1003A00019F0113009F4A9DF80E059DE882371F2D9
:1003B0000AD21F910F91089506D280E060E0F6D135
:1003C00087E890E0DED180E063E0F0D183E990E05F
:1003D000D8D18BE063E0EAD187E990E0D2D180E028
:1003E00061E0E4D18FE7C7D18CEB90E060E016D3F9
:1003F00088E061E0DBD189E591E0D8D380E062E07C
:10040000D5D18EE7B8D182EC90E060E007D388E0E8
:1004100062E0CCD18AE691E0C9D381E020DE882376
:1004200021F11092BD001092BC001092C3001092F6
:10043000C2001092590110926A011092BF001092EE
:10044000BE001092C5001092C40010925A01109282
:100450006B011092C1001092C0001092C700109260
:10046000C60010925B0110926C0180E0F8DD8823D9
:1004700009F4B5CFA8D10895A6D180E060E096D167
:100480008DE990E07ED180E063E090D183E990E057
:1004900078D18BE063E08AD187E990E072D180E087
:1004A000DEDD8823E1F38FD1089580E385BB11BAA7
:1004B0008FEF82BB8EEF87BB88B3816888BB91D1F9
:1004C000EAD38FEF90E09BBD8ABD80E060E06ED103
:1004D00089EA90E056D105C08AB59BB50F969BBDC1
:1004E0008ABD84E0BCDD882351F082E0B8DD88233A
:1004F00099F705C08AB59BB50F979BBD8ABD84E06F
:10050000AEDD882321F083E0AADD882399F781E01E
:10051000A6DD811104DF83E0A2DD81114DDF82E0E1
:100520009EDD8111A9DF80E060E040D18FE723D11B
:10053000809909C08CE591E060E09CD28CE591E067
:1005400060E06CD203C08DEA90E01BD188E060E0EF
:100550002DD18EE710D1819909C08DE691E061E03F
:1005600089D28DE691E061E059D203C08DEA90E036
:1005700008D184E061E01AD182E691E06CD382E692
:1005800091E014D3809163018823E9F480914301C1
:100590008B3371F588B3805888BB8FEF93EFA1E060
:1005A00081509040A040E1F700C0000088B380581F
:1005B00088BB8FEF99EFA0E081509040A040E1F719
:1005C00000C0000006C08E3199F4809143018D3146
:1005D00079F488B3805888BB8FEF93EFA1E0815006
:1005E0009040A040E1F700C0000088B3805888BB6D
:1005F000809163018093430185E691E0F8D2809178
:1006000065018823A9F490914201933089F41092F6
:100610004201809166018F5F8093660171D180EA0B
:100620007BD180E179D18091660176D16FD102C012
:100630008093420182E062E0B9D0809169018DD25D
:10064000A0D083E063E0B2D08091680192D190E0C5
:1006500061E025D185EB90E094D08091670189D14C
:1006600090E061E01CD185EB90E08BD087EB90E0CF
:1006700088D08091660190E0880F991F880F991F9C
:1006800020916501820F911D8A3091051CF48AEB3F
:1006900090E077D08091660190E0880F991F880FD5
:1006A000991F20916501820F911D60E0F8D08CE5C3
:1006B00091E06CEB70E042E651E029E531E063D176
:1006C0008DE691E062EC70E042E651E02AE631E02E
:1006D0005AD107CF80FF02C0AB9A01C0AB9881FF0F
:1006E00002C0AA9A01C0AA9882FF02C0A99A01C0BA
:1006F000A99883FF02C0A89A0895A898089583B383
:1007000090E023E0969587952A95E1F781709A9974
:100710008260999984609899886008951F93A3983E
:10072000A298A198A098C49AC39AE9DF182F1295AD
:10073000107FC398C39AE3DFC398812B1F9108955C
:10074000C598ECDF08951F93182FA39AA29AA19A37
:10075000A09AC498C39A82958F70BCDFC398C39A3D
:10076000812FB8DFC398ECDF87FDFDCF1F9108957F
:10077000C598E9DF0895C59AE6DF0895C59ACEDFEA
:100780000895CF93DF93EC0102C02196F4DF8881B6
:100790008823D9F7DF91CF9108956295660F660F90
:1007A000607C680F862F8068E3DF0895623010F068
:1007B0006250805F6295660F660F607C680F862FBF
:1007C0008068D6DF089581E0D3DF80EA9FE001975B
:1007D000F1F7089582E0CCDF80EA9FE00197F1F71E
:1007E00008951F93CF93DF93A39AA29AA19AA09AF8
:1007F000BB9ABD9ABC9A80E395E70197F1F7C5983B
:10080000C398C49810E0C0E1D7E2C39A83E062DFE6
:10081000C398CE010197F1F71F5F1330B1F7C39A68
:1008200082E058DFC39880ED97E00197F1F788E206
:100830009FDF88E09DDF81E09BDF86E099DF8CE031
:1008400097DFDF91CF911F9108959C0197FD11C013
:10085000E8E5F1E0C9016AE070E032D2805D8293A0
:10086000C9016AE070E02CD29B016115710591F716
:1008700014C0E8E5F1E040E3C9016AE070E020D28D
:10088000942F981B9293C9016AE070E019D29B01E2
:100890006115710589F78DE28293CF010895CF9399
:1008A000DF93EC01613031F48A3091051CF488EC5F
:1008B00090E067DFCE01C9DF64DFDF91CF9108955B
:1008C0000F931F93CF93DF938C01C7E0D0E0C80153
:1008D0000C2E02C0959587950A94E2F780FF03C01D
:1008E0008AEC90E002C088EC90E04BDF21978FEF1C
:1008F000CF3FD80761F7DF91CF911F910F910895F6
:1009000084EA86BF06B607FEFDCF089584E986BF58
:1009100006B604FCFDCF089583B984E886BF06B609
:1009200007FEFDCF81B121B190E0823109F491E061
:1009300080E02C3109F481E0982B81E0892708952B
:10094000882311F484E801C084EC86BF06B607FE54
:10095000FDCF83B1089580E280B90895282F6AE021
:10096000A3D1382F3295307F822F9ED1832F892BB0
:100970000895982F82958F702AE0829F802D1124F0
:100980009F70890F08950F931F93CF93DF93FC01FE
:10099000DB018A01A9012281338112968D919C91FC
:1009A0001397281739078CF02817390791F580819C
:1009B00091818130910571F42481358114968D9156
:1009C0009C9115978217930724F5BF01ED0120E054
:1009D00030E00CC0892BE9F42481358114968D9187
:1009E0009C9115972817390784F313C0FB01819157
:1009F0009191BF0189939993DA01A20FB31FF80176
:100A0000E20FF31F80818C932F5F3F4F233031051E
:100A100069F7DF91CF911F910F9108951F93CF93A5
:100A2000DF93EC01162F8A819B8197FD0AC0888194
:100A30009981019719F48CEC90E002C08EEC90E063
:100A4000A0DE8A819B8160E02ADF80ED90E099DE64
:100A50008C819D8160E023DF113029F48FED8BDEE6
:100A600082ED90E002C084ED90E08BDEDF91CF91CB
:100A70001F9108959F92AF92BF92CF92DF92EF9213
:100A8000FF920F931F93CF93DF937C01162F63DFA9
:100A9000110F70E9B72EB12A61E9A62EA12A8701AC
:100AA0000E5F1F4F54E0C52ED12CCE0CDF1C4AE048
:100AB000942E26DF8B2D30DF81E52EDF27DF20DF30
:100AC0008B2D2ADF8AEA28DF1BDF8A2D25DF81E0D4
:100AD00037DFD82FC0E08D2F992787FD9A95F80131
:100AE0009183808380E02CDF899DC0011124892FB0
:100AF000990F990BF6019183808308DFF8018081BB
:100B00009181FFEF843C9F07A1F297FF17C081E01E
:100B100090E0F7019183808384819581892B89F00E
:100B2000828193810196938382838AE090E024817D
:100B30003581821B930B9583848303C0F701118257
:100B40001082DF91CF911F910F91FF90EF90DF9076
:100B5000CF90BF90AF909F9008958330B9F08430CC
:100B600028F4813051F0823070F40AC08530A1F051
:100B7000853078F08630B1F412C027ED30E014C033
:100B800024EE30E011C021EF30E00EC02EEF30E057
:100B90000BC02BE031E008C028E131E005C025E2C0
:100BA00031E002C022E331E0C9010895EF92FF92E3
:100BB0000F931F938C01FC01808190E061E06FDE58
:100BC0008FE3E82E81E0F82EC701DBDDF80181819B
:100BD00090E061E064DEC701D4DDF801828190E03D
:100BE00061E05DDE1F910F91FF90EF9008950F93EC
:100BF0001F938C01B0DE84DE80EA8EDE85E08CDE21
:100C000085DE7EDE81EA88DE81E09ADE982F92958D
:100C1000969596959370F80190838F73838380E007
:100C20008FDE982F9F71F801928382958695877049
:100C300084836CDE65DE80EA6FDE80E16DDE66DE79
:100C40005FDE81EA69DE80E07BDEF80181835EDEC3
:100C50001F910F9108950F931F938C017CDE50DE3E
:100C600080EA5ADE82E058DE51DE4ADE81EA54DE56
:100C700081E066DE7EDEF801828381E061DE79DE7E
:100C8000F801818380E05CDE74DEF80180833EDE63
:100C90001F910F91089581EA8FBD8CE08EBD1BBC22
:100CA0001ABC19BC18BC0895991B79E004C0991F9F
:100CB000961708F0961B881F7A95C9F780950895B6
:100CC00097FB092E07260AD077FD04D00CD006D05A
:100CD00000201AF4709561957F4F0895F6F790956E
:100CE00081959F4F0895AA1BBB1B51E107C0AA1F06
:100CF000BB1FA617B70710F0A61BB70B881F991FBD
:100D00005A95A9F780959095BC01CD010895F89466
:020D1000FFCF13
:100D12005365742054696D65005E5E0020200053A7
:100D2200657420446174650030332F31322F3230C4
:100D32003134003E00200054656D702E206D696EC6
:100D42002E3A0045736300436C6561720054656D11
:100D5200702E206D61782E3A002E2E2E00204F46E6
:100D620046202020002F00323000300000006300B7
:100D72006300000063006300300031002D0020009A
:100D82002C004300202000706F6E6965647A6961EF
:100D92006C656B00206E6965647A69656C61202000
:100DA2000020202077746F72656B202020002020A5
:100DB2002073726F646120202020002020637A77E4
:100DC200617274656B202000202020706961746557
:100DD2006B20202000202020736F626F746120201E
:100DE2002000202020202020202020202020003A27
:020DF2000000FF
:00000001FF
